:020000040000FA
:020000000C28CA
:10000800FE00030EC0000A08C1007F08C200602875
:100018000D288B20CB008C20CC00C601C701C8015D
:10002800C901CA01830118287D208B170330FF00FE
:100038007F08CB001F30C5007130C4001E30C300DC
:10004800C30B2428C40B2428C50B2428000008301F
:10005800FF007F08CB001F30C5007130C4001E3080
:10006800C300C30B3528C40B3528C50B3528000041
:100078000C30FF007F08CB001F30C5007130C40072
:100088001E30C300C30B4628C40B4628C50B4628A0
:1000980000001930FF007F08CB001F30C500713009
:1000A800C4001E30C300C30B5728C40B5728C50B08
:1000B800572800001A280C280130FF007F08CA07BB
:1000C8004C084A02031C69286A286C280515CA01CD
:1000D8004B084A02031C71287228732805118C10DA
:1000E8004208FF0041088A00400E8300FE0E7E0E83
:1000F80009006030900085010B3086008801890175
:1001080032309200043093000B178D140800093424
:02011800193498
:02400E00062288
:00000001FF
