:020000040000FA
:020000000C28CA
:10000800FE00030EC7000A08C8007F08C90092282E
:100018000D28BD20CD00C001C101C201C301C4012A
:10002800C501C60183011828AF208B17C730CA0045
:100038001D28CA0B1C282028212833280B30CC0067
:100048002630CB005D30CA00CA0B2828CB0B2828E5
:10005800CC0B28282F280130FF007F08C60744084A
:100068004602031C38283928222849280B30CC009E
:100078002630CB005D30CA00CA0B4028CB0B402885
:10008800CC0B402847280130C60246084402031C0E
:100098004E284F283A2885195228532859280C30B9
:1000A800FF007F08C400C001C10185185C285D28D5
:1000B80063280830FF007F08C400C001C10105188B
:1000C800662867286D280330FF007F08C400C00138
:1000D800C101851D702871281A28851C7428752867
:1000E8001A28051C782879281A280130C00703180F
:1000F800C10A0030C10703304102E8300319400249
:10010800031C872888281A284D08FF007F08C40088
:10011800E830C0000330C1001A280C280130FF0065
:100128007F08C5074D084502031C9B289C289E286C
:100138000515C50146084502031CA328A428A528BF
:1001480005118C104908FF0048088A00470E8300F3
:10015800FE0E7E0E09006030900085010B3086008F
:100168008801890132309200043093000B178D14F6
:04017800080019342E
:02400E00062288
:00000001FF
