:020000040000FA
:020000000C28CA
:10000800FE00030EC7000A08C8007F08C900902830
:100018000D28BB20CD00C001C101C201C301C4012C
:10002800C501C60183011828AD208B17C730CA0047
:100038001D28CA0B1C28202821284408460203181A
:100048002628272838280B30CC002630CB005D30F6
:10005800CA00CA0B2D28CB0B2D28CC0B2D283428F1
:100068000130FF007F08C6074608440203183D28F0
:100078003E284D280B30CC002630CB005D30CA001E
:10008800CA0B4428CB0B4428CC0B44284B280130FE
:10009800C60285195028512857280C30FF007F08C0
:1000A800C400C001C10185185A285B28612808309E
:1000B800FF007F08C400C001C10105186428652835
:1000C8006B280330FF007F08C400C001C101851DF3
:1000D8006E286F281A28851C722873281A28051C70
:1000E800762877281A280130C0070318C10A00307B
:1000F800C10703304102E83003194002031C852878
:1001080086281A284D08FF007F08C400E830C00080
:100118000330C1001A280C280130FF007F08C507EA
:100128004D084502031C99289A289C280515C501E5
:1001380046084502031CA128A228A32805118C10F3
:100148004908FF0048088A00470E8300FE0E7E0E0D
:1001580009006030900085010B3086008801890114
:1001680032309200043093000B178D1408001934B4
:02400E00062288
:00000001FF
