:020000040000FA
:020000000C28CA
:10000800FE00030EC0000A08C1007F08C200922843
:100018000D28BD20CB00BE20CC00BF20CD00C601DE
:10002800C701C801C901CA0183011A28AF208B176B
:10003800C730C3001F28C30B1E28222823284B08BB
:100048004C020318282829283A280630C5001330FE
:10005800C400AD30C300C30B2F28C40B2F28C50B19
:100068002F2836280130FF007F08CC074C084B02A8
:1000780003183F2840284F280630C5001330C40015
:10008800AD30C300C30B4628C40B4628C50B462811
:100098004D280130CC0285195228532859280C3094
:1000A800FF007F08CB00C601C70185185C285D28C2
:1000B80063280830FF007F08CB00C601C701051878
:1000C800662867286D280330FF007F08CB00C6012B
:1000D800C701851D702871281C28851C742875285F
:1000E8001C28051C782879281C280130C607031805
:1000F800C70A0030C70703304702E8300319460231
:10010800031C872888281C284D08FF007F08CB007F
:10011800E830C6000330C7001C280C280130FF0057
:100128007F08CA074D084A02031C9B289C289E2862
:100138000515CA014C084A02031CA328A428A528AF
:1001480005118C104208FF0041088A00400E830008
:10015800FE0E7E0E09006030900085010B3086008F
:100168008801890132309200043093000B178D14F6
:08017800080019341934193490
:02400E00062288
:00000001FF
